{
  "_format": "hh-sol-artifact-1",
  "contractName": "CreateNFT",
  "sourceName": "contracts/CreateNFT.sol",
  "abi": [
    {
      "inputs": [],
      "stateMutability": "nonpayable",
      "type": "constructor"
    },
    {
      "anonymous": false,
      "inputs": [
        {
          "indexed": true,
          "internalType": "address",
          "name": "owner",
          "type": "address"
        },
        {
          "indexed": true,
          "internalType": "address",
          "name": "approved",
          "type": "address"
        },
        {
          "indexed": true,
          "internalType": "uint256",
          "name": "tokenId",
          "type": "uint256"
        }
      ],
      "name": "Approval",
      "type": "event"
    },
    {
      "anonymous": false,
      "inputs": [
        {
          "indexed": true,
          "internalType": "address",
          "name": "owner",
          "type": "address"
        },
        {
          "indexed": true,
          "internalType": "address",
          "name": "operator",
          "type": "address"
        },
        {
          "indexed": false,
          "internalType": "bool",
          "name": "approved",
          "type": "bool"
        }
      ],
      "name": "ApprovalForAll",
      "type": "event"
    },
    {
      "anonymous": false,
      "inputs": [
        {
          "indexed": true,
          "internalType": "address",
          "name": "previousOwner",
          "type": "address"
        },
        {
          "indexed": true,
          "internalType": "address",
          "name": "newOwner",
          "type": "address"
        }
      ],
      "name": "OwnershipTransferred",
      "type": "event"
    },
    {
      "anonymous": false,
      "inputs": [
        {
          "indexed": true,
          "internalType": "address",
          "name": "from",
          "type": "address"
        },
        {
          "indexed": true,
          "internalType": "address",
          "name": "to",
          "type": "address"
        },
        {
          "indexed": true,
          "internalType": "uint256",
          "name": "tokenId",
          "type": "uint256"
        }
      ],
      "name": "Transfer",
      "type": "event"
    },
    {
      "inputs": [
        {
          "internalType": "address",
          "name": "to",
          "type": "address"
        },
        {
          "internalType": "uint256",
          "name": "tokenId",
          "type": "uint256"
        }
      ],
      "name": "approve",
      "outputs": [],
      "stateMutability": "nonpayable",
      "type": "function"
    },
    {
      "inputs": [
        {
          "internalType": "address",
          "name": "owner",
          "type": "address"
        }
      ],
      "name": "balanceOf",
      "outputs": [
        {
          "internalType": "uint256",
          "name": "",
          "type": "uint256"
        }
      ],
      "stateMutability": "view",
      "type": "function"
    },
    {
      "inputs": [
        {
          "internalType": "uint256",
          "name": "tokenId",
          "type": "uint256"
        }
      ],
      "name": "getApproved",
      "outputs": [
        {
          "internalType": "address",
          "name": "",
          "type": "address"
        }
      ],
      "stateMutability": "view",
      "type": "function"
    },
    {
      "inputs": [
        {
          "internalType": "address",
          "name": "owner",
          "type": "address"
        },
        {
          "internalType": "address",
          "name": "operator",
          "type": "address"
        }
      ],
      "name": "isApprovedForAll",
      "outputs": [
        {
          "internalType": "bool",
          "name": "",
          "type": "bool"
        }
      ],
      "stateMutability": "view",
      "type": "function"
    },
    {
      "inputs": [
        {
          "internalType": "address",
          "name": "recipient",
          "type": "address"
        },
        {
          "internalType": "string",
          "name": "tokenURI",
          "type": "string"
        }
      ],
      "name": "mintNFT",
      "outputs": [
        {
          "internalType": "uint256",
          "name": "",
          "type": "uint256"
        }
      ],
      "stateMutability": "nonpayable",
      "type": "function"
    },
    {
      "inputs": [
        {
          "internalType": "address",
          "name": "recipient",
          "type": "address"
        },
        {
          "internalType": "uint256",
          "name": "tokenId",
          "type": "uint256"
        },
        {
          "internalType": "string",
          "name": "uri",
          "type": "string"
        }
      ],
      "name": "mintToken",
      "outputs": [],
      "stateMutability": "payable",
      "type": "function"
    },
    {
      "inputs": [],
      "name": "name",
      "outputs": [
        {
          "internalType": "string",
          "name": "",
          "type": "string"
        }
      ],
      "stateMutability": "view",
      "type": "function"
    },
    {
      "inputs": [],
      "name": "owner",
      "outputs": [
        {
          "internalType": "address",
          "name": "",
          "type": "address"
        }
      ],
      "stateMutability": "view",
      "type": "function"
    },
    {
      "inputs": [
        {
          "internalType": "uint256",
          "name": "tokenId",
          "type": "uint256"
        }
      ],
      "name": "ownerOf",
      "outputs": [
        {
          "internalType": "address",
          "name": "",
          "type": "address"
        }
      ],
      "stateMutability": "view",
      "type": "function"
    },
    {
      "inputs": [],
      "name": "renounceOwnership",
      "outputs": [],
      "stateMutability": "nonpayable",
      "type": "function"
    },
    {
      "inputs": [
        {
          "internalType": "address",
          "name": "from",
          "type": "address"
        },
        {
          "internalType": "address",
          "name": "to",
          "type": "address"
        },
        {
          "internalType": "uint256",
          "name": "tokenId",
          "type": "uint256"
        }
      ],
      "name": "safeTransferFrom",
      "outputs": [],
      "stateMutability": "nonpayable",
      "type": "function"
    },
    {
      "inputs": [
        {
          "internalType": "address",
          "name": "from",
          "type": "address"
        },
        {
          "internalType": "address",
          "name": "to",
          "type": "address"
        },
        {
          "internalType": "uint256",
          "name": "tokenId",
          "type": "uint256"
        },
        {
          "internalType": "bytes",
          "name": "_data",
          "type": "bytes"
        }
      ],
      "name": "safeTransferFrom",
      "outputs": [],
      "stateMutability": "nonpayable",
      "type": "function"
    },
    {
      "inputs": [
        {
          "internalType": "address",
          "name": "operator",
          "type": "address"
        },
        {
          "internalType": "bool",
          "name": "approved",
          "type": "bool"
        }
      ],
      "name": "setApprovalForAll",
      "outputs": [],
      "stateMutability": "nonpayable",
      "type": "function"
    },
    {
      "inputs": [
        {
          "internalType": "bytes4",
          "name": "interfaceId",
          "type": "bytes4"
        }
      ],
      "name": "supportsInterface",
      "outputs": [
        {
          "internalType": "bool",
          "name": "",
          "type": "bool"
        }
      ],
      "stateMutability": "view",
      "type": "function"
    },
    {
      "inputs": [],
      "name": "symbol",
      "outputs": [
        {
          "internalType": "string",
          "name": "",
          "type": "string"
        }
      ],
      "stateMutability": "view",
      "type": "function"
    },
    {
      "inputs": [
        {
          "internalType": "uint256",
          "name": "tokenId",
          "type": "uint256"
        }
      ],
      "name": "tokenURI",
      "outputs": [
        {
          "internalType": "string",
          "name": "",
          "type": "string"
        }
      ],
      "stateMutability": "view",
      "type": "function"
    },
    {
      "inputs": [
        {
          "internalType": "address",
          "name": "from",
          "type": "address"
        },
        {
          "internalType": "address",
          "name": "to",
          "type": "address"
        },
        {
          "internalType": "uint256",
          "name": "tokenId",
          "type": "uint256"
        }
      ],
      "name": "transferFrom",
      "outputs": [],
      "stateMutability": "nonpayable",
      "type": "function"
    },
    {
      "inputs": [
        {
          "internalType": "address",
          "name": "newOwner",
          "type": "address"
        }
      ],
      "name": "transferOwnership",
      "outputs": [],
      "stateMutability": "nonpayable",
      "type": "function"
    }
  ],
  "bytecode": "0x60806040523480156200001157600080fd5b506040518060400160405280600981526020017f4372656174654e465400000000000000000000000000000000000000000000008152506040518060400160405280600381526020017f4e46540000000000000000000000000000000000000000000000000000000000815250816000908051906020019062000096929190620001a6565b508060019080519060200190620000af929190620001a6565b505050620000d2620000c6620000d860201b60201c565b620000e060201b60201c565b620002bb565b600033905090565b6000600760009054906101000a900473ffffffffffffffffffffffffffffffffffffffff16905081600760006101000a81548173ffffffffffffffffffffffffffffffffffffffff021916908373ffffffffffffffffffffffffffffffffffffffff1602179055508173ffffffffffffffffffffffffffffffffffffffff168173ffffffffffffffffffffffffffffffffffffffff167f8be0079c531659141344cd1fd0a4f28419497f9722a3daafe3b4186f6b6457e060405160405180910390a35050565b828054620001b49062000256565b90600052602060002090601f016020900481019282620001d8576000855562000224565b82601f10620001f357805160ff191683800117855562000224565b8280016001018555821562000224579182015b828111156200022357825182559160200191906001019062000206565b5b50905062000233919062000237565b5090565b5b808211156200025257600081600090555060010162000238565b5090565b600060028204905060018216806200026f57607f821691505b602082108114156200028657620002856200028c565b5b50919050565b7f4e487b7100000000000000000000000000000000000000000000000000000000600052602260045260246000fd5b6130fd80620002cb6000396000f3fe6080604052600436106101095760003560e01c80638da5cb5b11610095578063c87b56dd11610064578063c87b56dd14610367578063e985e9c5146103a4578063eacabe14146103e1578063f2fde38b1461041e578063f76e8ba91461044757610109565b80638da5cb5b146102bf57806395d89b41146102ea578063a22cb46514610315578063b88d4fde1461033e57610109565b806323b872dd116100dc57806323b872dd146101dc57806342842e0e146102055780636352211e1461022e57806370a082311461026b578063715018a6146102a857610109565b806301ffc9a71461010e57806306fdde031461014b578063081812fc14610176578063095ea7b3146101b3575b600080fd5b34801561011a57600080fd5b5061013560048036038101906101309190612125565b610463565b60405161014291906129f5565b60405180910390f35b34801561015757600080fd5b50610160610545565b60405161016d9190612a10565b60405180910390f35b34801561018257600080fd5b5061019d60048036038101906101989190612177565b6105d7565b6040516101aa919061298e565b60405180910390f35b3480156101bf57600080fd5b506101da60048036038101906101d59190612082565b61065c565b005b3480156101e857600080fd5b5061020360048036038101906101fe9190611f28565b610774565b005b34801561021157600080fd5b5061022c60048036038101906102279190611f28565b6107d4565b005b34801561023a57600080fd5b5061025560048036038101906102509190612177565b6107f4565b604051610262919061298e565b60405180910390f35b34801561027757600080fd5b50610292600480360381019061028d9190611ec3565b6108a6565b60405161029f9190612c92565b60405180910390f35b3480156102b457600080fd5b506102bd61095e565b005b3480156102cb57600080fd5b506102d46109e6565b6040516102e1919061298e565b60405180910390f35b3480156102f657600080fd5b506102ff610a10565b60405161030c9190612a10565b60405180910390f35b34801561032157600080fd5b5061033c60048036038101906103379190611ff2565b610aa2565b005b34801561034a57600080fd5b5061036560048036038101906103609190611f77565b610c23565b005b34801561037357600080fd5b5061038e60048036038101906103899190612177565b610c85565b60405161039b9190612a10565b60405180910390f35b3480156103b057600080fd5b506103cb60048036038101906103c69190611eec565b610dd7565b6040516103d891906129f5565b60405180910390f35b3480156103ed57600080fd5b506104086004803603810190610403919061202e565b610e6b565b6040516104159190612c92565b60405180910390f35b34801561042a57600080fd5b5061044560048036038101906104409190611ec3565b610f1f565b005b610461600480360381019061045c91906120be565b611017565b005b60007f80ac58cd000000000000000000000000000000000000000000000000000000007bffffffffffffffffffffffffffffffffffffffffffffffffffffffff1916827bffffffffffffffffffffffffffffffffffffffffffffffffffffffff1916148061052e57507f5b5e139f000000000000000000000000000000000000000000000000000000007bffffffffffffffffffffffffffffffffffffffffffffffffffffffff1916827bffffffffffffffffffffffffffffffffffffffffffffffffffffffff1916145b8061053e575061053d82611074565b5b9050919050565b60606000805461055490612ef2565b80601f016020809104026020016040519081016040528092919081815260200182805461058090612ef2565b80156105cd5780601f106105a2576101008083540402835291602001916105cd565b820191906000526020600020905b8154815290600101906020018083116105b057829003601f168201915b5050505050905090565b60006105e2826110de565b610621576040517f08c379a000000000000000000000000000000000000000000000000000000000815260040161061890612bb2565b60405180910390fd5b6004600083815260200190815260200160002060009054906101000a900473ffffffffffffffffffffffffffffffffffffffff169050919050565b6000610667826107f4565b90508073ffffffffffffffffffffffffffffffffffffffff168373ffffffffffffffffffffffffffffffffffffffff1614156106d8576040517f08c379a00000000000000000000000000000000000000000000000000000000081526004016106cf90612c32565b60405180910390fd5b8073ffffffffffffffffffffffffffffffffffffffff166106f761114a565b73ffffffffffffffffffffffffffffffffffffffff16148061072657506107258161072061114a565b610dd7565b5b610765576040517f08c379a000000000000000000000000000000000000000000000000000000000815260040161075c90612af2565b60405180910390fd5b61076f8383611152565b505050565b61078561077f61114a565b8261120b565b6107c4576040517f08c379a00000000000000000000000000000000000000000000000000000000081526004016107bb90612c52565b60405180910390fd5b6107cf8383836112e9565b505050565b6107ef83838360405180602001604052806000815250610c23565b505050565b6000806002600084815260200190815260200160002060009054906101000a900473ffffffffffffffffffffffffffffffffffffffff169050600073ffffffffffffffffffffffffffffffffffffffff168173ffffffffffffffffffffffffffffffffffffffff16141561089d576040517f08c379a000000000000000000000000000000000000000000000000000000000815260040161089490612b32565b60405180910390fd5b80915050919050565b60008073ffffffffffffffffffffffffffffffffffffffff168273ffffffffffffffffffffffffffffffffffffffff161415610917576040517f08c379a000000000000000000000000000000000000000000000000000000000815260040161090e90612b12565b60405180910390fd5b600360008373ffffffffffffffffffffffffffffffffffffffff1673ffffffffffffffffffffffffffffffffffffffff168152602001908152602001600020549050919050565b61096661114a565b73ffffffffffffffffffffffffffffffffffffffff166109846109e6565b73ffffffffffffffffffffffffffffffffffffffff16146109da576040517f08c379a00000000000000000000000000000000000000000000000000000000081526004016109d190612bd2565b60405180910390fd5b6109e46000611545565b565b6000600760009054906101000a900473ffffffffffffffffffffffffffffffffffffffff16905090565b606060018054610a1f90612ef2565b80601f0160208091040260200160405190810160405280929190818152602001828054610a4b90612ef2565b8015610a985780601f10610a6d57610100808354040283529160200191610a98565b820191906000526020600020905b815481529060010190602001808311610a7b57829003601f168201915b5050505050905090565b610aaa61114a565b73ffffffffffffffffffffffffffffffffffffffff168273ffffffffffffffffffffffffffffffffffffffff161415610b18576040517f08c379a0000000000000000000000000000000000000000000000000000000008152600401610b0f90612ab2565b60405180910390fd5b8060056000610b2561114a565b73ffffffffffffffffffffffffffffffffffffffff1673ffffffffffffffffffffffffffffffffffffffff16815260200190815260200160002060008473ffffffffffffffffffffffffffffffffffffffff1673ffffffffffffffffffffffffffffffffffffffff16815260200190815260200160002060006101000a81548160ff0219169083151502179055508173ffffffffffffffffffffffffffffffffffffffff16610bd261114a565b73ffffffffffffffffffffffffffffffffffffffff167f17307eab39ab6107e8899845ad3d59bd9653f200f220920489ca2b5937696c3183604051610c1791906129f5565b60405180910390a35050565b610c34610c2e61114a565b8361120b565b610c73576040517f08c379a0000000000000000000000000000000000000000000000000000000008152600401610c6a90612c52565b60405180910390fd5b610c7f8484848461160b565b50505050565b6060610c90826110de565b610ccf576040517f08c379a0000000000000000000000000000000000000000000000000000000008152600401610cc690612b92565b60405180910390fd5b6000600660008481526020019081526020016000208054610cef90612ef2565b80601f0160208091040260200160405190810160405280929190818152602001828054610d1b90612ef2565b8015610d685780601f10610d3d57610100808354040283529160200191610d68565b820191906000526020600020905b815481529060010190602001808311610d4b57829003601f168201915b505050505090506000610d79611667565b9050600081511415610d8f578192505050610dd2565b600082511115610dc4578082604051602001610dac92919061296a565b60405160208183030381529060405292505050610dd2565b610dcd8461167e565b925050505b919050565b6000600560008473ffffffffffffffffffffffffffffffffffffffff1673ffffffffffffffffffffffffffffffffffffffff16815260200190815260200160002060008373ffffffffffffffffffffffffffffffffffffffff1673ffffffffffffffffffffffffffffffffffffffff16815260200190815260200160002060009054906101000a900460ff16905092915050565b6000610e7561114a565b73ffffffffffffffffffffffffffffffffffffffff16610e936109e6565b73ffffffffffffffffffffffffffffffffffffffff1614610ee9576040517f08c379a0000000000000000000000000000000000000000000000000000000008152600401610ee090612bd2565b60405180910390fd5b610ef36008611725565b6000610eff600861173b565b9050610f0b8482611749565b610f158184611917565b8091505092915050565b610f2761114a565b73ffffffffffffffffffffffffffffffffffffffff16610f456109e6565b73ffffffffffffffffffffffffffffffffffffffff1614610f9b576040517f08c379a0000000000000000000000000000000000000000000000000000000008152600401610f9290612bd2565b60405180910390fd5b600073ffffffffffffffffffffffffffffffffffffffff168173ffffffffffffffffffffffffffffffffffffffff16141561100b576040517f08c379a000000000000000000000000000000000000000000000000000000000815260040161100290612a52565b60405180910390fd5b61101481611545565b50565b600a34101561105b576040517f08c379a000000000000000000000000000000000000000000000000000000000815260040161105290612c72565b60405180910390fd5b6110658383611749565b61106f8282611917565b505050565b60007f01ffc9a7000000000000000000000000000000000000000000000000000000007bffffffffffffffffffffffffffffffffffffffffffffffffffffffff1916827bffffffffffffffffffffffffffffffffffffffffffffffffffffffff1916149050919050565b60008073ffffffffffffffffffffffffffffffffffffffff166002600084815260200190815260200160002060009054906101000a900473ffffffffffffffffffffffffffffffffffffffff1673ffffffffffffffffffffffffffffffffffffffff1614159050919050565b600033905090565b816004600083815260200190815260200160002060006101000a81548173ffffffffffffffffffffffffffffffffffffffff021916908373ffffffffffffffffffffffffffffffffffffffff160217905550808273ffffffffffffffffffffffffffffffffffffffff166111c5836107f4565b73ffffffffffffffffffffffffffffffffffffffff167f8c5be1e5ebec7d5bd14f71427d1e84f3dd0314c0f7b2291e5b200ac8c7c3b92560405160405180910390a45050565b6000611216826110de565b611255576040517f08c379a000000000000000000000000000000000000000000000000000000000815260040161124c90612ad2565b60405180910390fd5b6000611260836107f4565b90508073ffffffffffffffffffffffffffffffffffffffff168473ffffffffffffffffffffffffffffffffffffffff1614806112cf57508373ffffffffffffffffffffffffffffffffffffffff166112b7846105d7565b73ffffffffffffffffffffffffffffffffffffffff16145b806112e057506112df8185610dd7565b5b91505092915050565b8273ffffffffffffffffffffffffffffffffffffffff16611309826107f4565b73ffffffffffffffffffffffffffffffffffffffff161461135f576040517f08c379a000000000000000000000000000000000000000000000000000000000815260040161135690612bf2565b60405180910390fd5b600073ffffffffffffffffffffffffffffffffffffffff168273ffffffffffffffffffffffffffffffffffffffff1614156113cf576040517f08c379a00000000000000000000000000000000000000000000000000000000081526004016113c690612a92565b60405180910390fd5b6113da83838361198b565b6113e5600082611152565b6001600360008573ffffffffffffffffffffffffffffffffffffffff1673ffffffffffffffffffffffffffffffffffffffff16815260200190815260200160002060008282546114359190612e08565b925050819055506001600360008473ffffffffffffffffffffffffffffffffffffffff1673ffffffffffffffffffffffffffffffffffffffff168152602001908152602001600020600082825461148c9190612d81565b92505081905550816002600083815260200190815260200160002060006101000a81548173ffffffffffffffffffffffffffffffffffffffff021916908373ffffffffffffffffffffffffffffffffffffffff160217905550808273ffffffffffffffffffffffffffffffffffffffff168473ffffffffffffffffffffffffffffffffffffffff167fddf252ad1be2c89b69c2b068fc378daa952ba7f163c4a11628f55a4df523b3ef60405160405180910390a4505050565b6000600760009054906101000a900473ffffffffffffffffffffffffffffffffffffffff16905081600760006101000a81548173ffffffffffffffffffffffffffffffffffffffff021916908373ffffffffffffffffffffffffffffffffffffffff1602179055508173ffffffffffffffffffffffffffffffffffffffff168173ffffffffffffffffffffffffffffffffffffffff167f8be0079c531659141344cd1fd0a4f28419497f9722a3daafe3b4186f6b6457e060405160405180910390a35050565b6116168484846112e9565b61162284848484611990565b611661576040517f08c379a000000000000000000000000000000000000000000000000000000000815260040161165890612a32565b60405180910390fd5b50505050565b606060405180602001604052806000815250905090565b6060611689826110de565b6116c8576040517f08c379a00000000000000000000000000000000000000000000000000000000081526004016116bf90612c12565b60405180910390fd5b60006116d2611667565b905060008151116116f2576040518060200160405280600081525061171d565b806116fc84611b27565b60405160200161170d92919061296a565b6040516020818303038152906040525b915050919050565b6001816000016000828254019250508190555050565b600081600001549050919050565b600073ffffffffffffffffffffffffffffffffffffffff168273ffffffffffffffffffffffffffffffffffffffff1614156117b9576040517f08c379a00000000000000000000000000000000000000000000000000000000081526004016117b090612b72565b60405180910390fd5b6117c2816110de565b15611802576040517f08c379a00000000000000000000000000000000000000000000000000000000081526004016117f990612a72565b60405180910390fd5b61180e6000838361198b565b6001600360008473ffffffffffffffffffffffffffffffffffffffff1673ffffffffffffffffffffffffffffffffffffffff168152602001908152602001600020600082825461185e9190612d81565b92505081905550816002600083815260200190815260200160002060006101000a81548173ffffffffffffffffffffffffffffffffffffffff021916908373ffffffffffffffffffffffffffffffffffffffff160217905550808273ffffffffffffffffffffffffffffffffffffffff16600073ffffffffffffffffffffffffffffffffffffffff167fddf252ad1be2c89b69c2b068fc378daa952ba7f163c4a11628f55a4df523b3ef60405160405180910390a45050565b611920826110de565b61195f576040517f08c379a000000000000000000000000000000000000000000000000000000000815260040161195690612b52565b60405180910390fd5b80600660008481526020019081526020016000209080519060200190611986929190611ce7565b505050565b505050565b60006119b18473ffffffffffffffffffffffffffffffffffffffff16611cd4565b15611b1a578373ffffffffffffffffffffffffffffffffffffffff1663150b7a026119da61114a565b8786866040518563ffffffff1660e01b81526004016119fc94939291906129a9565b602060405180830381600087803b158015611a1657600080fd5b505af1925050508015611a4757506040513d601f19601f82011682018060405250810190611a44919061214e565b60015b611aca573d8060008114611a77576040519150601f19603f3d011682016040523d82523d6000602084013e611a7c565b606091505b50600081511415611ac2576040517f08c379a0000000000000000000000000000000000000000000000000000000008152600401611ab990612a32565b60405180910390fd5b805181602001fd5b63150b7a0260e01b7bffffffffffffffffffffffffffffffffffffffffffffffffffffffff1916817bffffffffffffffffffffffffffffffffffffffffffffffffffffffff191614915050611b1f565b600190505b949350505050565b60606000821415611b6f576040518060400160405280600181526020017f30000000000000000000000000000000000000000000000000000000000000008152509050611ccf565b600082905060005b60008214611ba1578080611b8a90612f24565b915050600a82611b9a9190612dd7565b9150611b77565b60008167ffffffffffffffff811115611be3577f4e487b7100000000000000000000000000000000000000000000000000000000600052604160045260246000fd5b6040519080825280601f01601f191660200182016040528015611c155781602001600182028036833780820191505090505b5090505b60008514611cc857600182611c2e9190612e08565b9150600a85611c3d9190612f6d565b6030611c499190612d81565b60f81b818381518110611c85577f4e487b7100000000000000000000000000000000000000000000000000000000600052603260045260246000fd5b60200101907effffffffffffffffffffffffffffffffffffffffffffffffffffffffffffff1916908160001a905350600a85611cc19190612dd7565b9450611c19565b8093505050505b919050565b600080823b905060008111915050919050565b828054611cf390612ef2565b90600052602060002090601f016020900481019282611d155760008555611d5c565b82601f10611d2e57805160ff1916838001178555611d5c565b82800160010185558215611d5c579182015b82811115611d5b578251825591602001919060010190611d40565b5b509050611d699190611d6d565b5090565b5b80821115611d86576000816000905550600101611d6e565b5090565b6000611d9d611d9884612cde565b612cad565b905082815260208101848484011115611db557600080fd5b611dc0848285612eb0565b509392505050565b6000611ddb611dd684612d0e565b612cad565b905082815260208101848484011115611df357600080fd5b611dfe848285612eb0565b509392505050565b600081359050611e158161306b565b92915050565b600081359050611e2a81613082565b92915050565b600081359050611e3f81613099565b92915050565b600081519050611e5481613099565b92915050565b600082601f830112611e6b57600080fd5b8135611e7b848260208601611d8a565b91505092915050565b600082601f830112611e9557600080fd5b8135611ea5848260208601611dc8565b91505092915050565b600081359050611ebd816130b0565b92915050565b600060208284031215611ed557600080fd5b6000611ee384828501611e06565b91505092915050565b60008060408385031215611eff57600080fd5b6000611f0d85828601611e06565b9250506020611f1e85828601611e06565b9150509250929050565b600080600060608486031215611f3d57600080fd5b6000611f4b86828701611e06565b9350506020611f5c86828701611e06565b9250506040611f6d86828701611eae565b9150509250925092565b60008060008060808587031215611f8d57600080fd5b6000611f9b87828801611e06565b9450506020611fac87828801611e06565b9350506040611fbd87828801611eae565b925050606085013567ffffffffffffffff811115611fda57600080fd5b611fe687828801611e5a565b91505092959194509250565b6000806040838503121561200557600080fd5b600061201385828601611e06565b925050602061202485828601611e1b565b9150509250929050565b6000806040838503121561204157600080fd5b600061204f85828601611e06565b925050602083013567ffffffffffffffff81111561206c57600080fd5b61207885828601611e84565b9150509250929050565b6000806040838503121561209557600080fd5b60006120a385828601611e06565b92505060206120b485828601611eae565b9150509250929050565b6000806000606084860312156120d357600080fd5b60006120e186828701611e06565b93505060206120f286828701611eae565b925050604084013567ffffffffffffffff81111561210f57600080fd5b61211b86828701611e84565b9150509250925092565b60006020828403121561213757600080fd5b600061214584828501611e30565b91505092915050565b60006020828403121561216057600080fd5b600061216e84828501611e45565b91505092915050565b60006020828403121561218957600080fd5b600061219784828501611eae565b91505092915050565b6121a981612e3c565b82525050565b6121b881612e4e565b82525050565b60006121c982612d3e565b6121d38185612d54565b93506121e3818560208601612ebf565b6121ec8161305a565b840191505092915050565b600061220282612d49565b61220c8185612d65565b935061221c818560208601612ebf565b6122258161305a565b840191505092915050565b600061223b82612d49565b6122458185612d76565b9350612255818560208601612ebf565b80840191505092915050565b600061226e603283612d65565b91507f4552433732313a207472616e7366657220746f206e6f6e20455243373231526560008301527f63656976657220696d706c656d656e74657200000000000000000000000000006020830152604082019050919050565b60006122d4602683612d65565b91507f4f776e61626c653a206e6577206f776e657220697320746865207a65726f206160008301527f64647265737300000000000000000000000000000000000000000000000000006020830152604082019050919050565b600061233a601c83612d65565b91507f4552433732313a20746f6b656e20616c7265616479206d696e746564000000006000830152602082019050919050565b600061237a602483612d65565b91507f4552433732313a207472616e7366657220746f20746865207a65726f2061646460008301527f72657373000000000000000000000000000000000000000000000000000000006020830152604082019050919050565b60006123e0601983612d65565b91507f4552433732313a20617070726f766520746f2063616c6c6572000000000000006000830152602082019050919050565b6000612420602c83612d65565b91507f4552433732313a206f70657261746f7220717565727920666f72206e6f6e657860008301527f697374656e7420746f6b656e00000000000000000000000000000000000000006020830152604082019050919050565b6000612486603883612d65565b91507f4552433732313a20617070726f76652063616c6c6572206973206e6f74206f7760008301527f6e6572206e6f7220617070726f76656420666f7220616c6c00000000000000006020830152604082019050919050565b60006124ec602a83612d65565b91507f4552433732313a2062616c616e636520717565727920666f7220746865207a6560008301527f726f2061646472657373000000000000000000000000000000000000000000006020830152604082019050919050565b6000612552602983612d65565b91507f4552433732313a206f776e657220717565727920666f72206e6f6e657869737460008301527f656e7420746f6b656e00000000000000000000000000000000000000000000006020830152604082019050919050565b60006125b8602e83612d65565b91507f45524337323155524953746f726167653a2055524920736574206f66206e6f6e60008301527f6578697374656e7420746f6b656e0000000000000000000000000000000000006020830152604082019050919050565b600061261e602083612d65565b91507f4552433732313a206d696e7420746f20746865207a65726f20616464726573736000830152602082019050919050565b600061265e603183612d65565b91507f45524337323155524953746f726167653a2055524920717565727920666f722060008301527f6e6f6e6578697374656e7420746f6b656e0000000000000000000000000000006020830152604082019050919050565b60006126c4602c83612d65565b91507f4552433732313a20617070726f76656420717565727920666f72206e6f6e657860008301527f697374656e7420746f6b656e00000000000000000000000000000000000000006020830152604082019050919050565b600061272a602083612d65565b91507f4f776e61626c653a2063616c6c6572206973206e6f7420746865206f776e65726000830152602082019050919050565b600061276a602983612d65565b91507f4552433732313a207472616e73666572206f6620746f6b656e2074686174206960008301527f73206e6f74206f776e00000000000000000000000000000000000000000000006020830152604082019050919050565b60006127d0602f83612d65565b91507f4552433732314d657461646174613a2055524920717565727920666f72206e6f60008301527f6e6578697374656e7420746f6b656e00000000000000000000000000000000006020830152604082019050919050565b6000612836602183612d65565b91507f4552433732313a20617070726f76616c20746f2063757272656e74206f776e6560008301527f72000000000000000000000000000000000000000000000000000000000000006020830152604082019050919050565b600061289c603183612d65565b91507f4552433732313a207472616e736665722063616c6c6572206973206e6f74206f60008301527f776e6572206e6f7220617070726f7665640000000000000000000000000000006020830152604082019050919050565b6000612902602483612d65565b91507f4e6f7420656e6f75676820746f6b656e732073656e743b20636865636b20707260008301527f69636521000000000000000000000000000000000000000000000000000000006020830152604082019050919050565b61296481612ea6565b82525050565b60006129768285612230565b91506129828284612230565b91508190509392505050565b60006020820190506129a360008301846121a0565b92915050565b60006080820190506129be60008301876121a0565b6129cb60208301866121a0565b6129d8604083018561295b565b81810360608301526129ea81846121be565b905095945050505050565b6000602082019050612a0a60008301846121af565b92915050565b60006020820190508181036000830152612a2a81846121f7565b905092915050565b60006020820190508181036000830152612a4b81612261565b9050919050565b60006020820190508181036000830152612a6b816122c7565b9050919050565b60006020820190508181036000830152612a8b8161232d565b9050919050565b60006020820190508181036000830152612aab8161236d565b9050919050565b60006020820190508181036000830152612acb816123d3565b9050919050565b60006020820190508181036000830152612aeb81612413565b9050919050565b60006020820190508181036000830152612b0b81612479565b9050919050565b60006020820190508181036000830152612b2b816124df565b9050919050565b60006020820190508181036000830152612b4b81612545565b9050919050565b60006020820190508181036000830152612b6b816125ab565b9050919050565b60006020820190508181036000830152612b8b81612611565b9050919050565b60006020820190508181036000830152612bab81612651565b9050919050565b60006020820190508181036000830152612bcb816126b7565b9050919050565b60006020820190508181036000830152612beb8161271d565b9050919050565b60006020820190508181036000830152612c0b8161275d565b9050919050565b60006020820190508181036000830152612c2b816127c3565b9050919050565b60006020820190508181036000830152612c4b81612829565b9050919050565b60006020820190508181036000830152612c6b8161288f565b9050919050565b60006020820190508181036000830152612c8b816128f5565b9050919050565b6000602082019050612ca7600083018461295b565b92915050565b6000604051905081810181811067ffffffffffffffff82111715612cd457612cd361302b565b5b8060405250919050565b600067ffffffffffffffff821115612cf957612cf861302b565b5b601f19601f8301169050602081019050919050565b600067ffffffffffffffff821115612d2957612d2861302b565b5b601f19601f8301169050602081019050919050565b600081519050919050565b600081519050919050565b600082825260208201905092915050565b600082825260208201905092915050565b600081905092915050565b6000612d8c82612ea6565b9150612d9783612ea6565b9250827fffffffffffffffffffffffffffffffffffffffffffffffffffffffffffffffff03821115612dcc57612dcb612f9e565b5b828201905092915050565b6000612de282612ea6565b9150612ded83612ea6565b925082612dfd57612dfc612fcd565b5b828204905092915050565b6000612e1382612ea6565b9150612e1e83612ea6565b925082821015612e3157612e30612f9e565b5b828203905092915050565b6000612e4782612e86565b9050919050565b60008115159050919050565b60007fffffffff0000000000000000000000000000000000000000000000000000000082169050919050565b600073ffffffffffffffffffffffffffffffffffffffff82169050919050565b6000819050919050565b82818337600083830152505050565b60005b83811015612edd578082015181840152602081019050612ec2565b83811115612eec576000848401525b50505050565b60006002820490506001821680612f0a57607f821691505b60208210811415612f1e57612f1d612ffc565b5b50919050565b6000612f2f82612ea6565b91507fffffffffffffffffffffffffffffffffffffffffffffffffffffffffffffffff821415612f6257612f61612f9e565b5b600182019050919050565b6000612f7882612ea6565b9150612f8383612ea6565b925082612f9357612f92612fcd565b5b828206905092915050565b7f4e487b7100000000000000000000000000000000000000000000000000000000600052601160045260246000fd5b7f4e487b7100000000000000000000000000000000000000000000000000000000600052601260045260246000fd5b7f4e487b7100000000000000000000000000000000000000000000000000000000600052602260045260246000fd5b7f4e487b7100000000000000000000000000000000000000000000000000000000600052604160045260246000fd5b6000601f19601f8301169050919050565b61307481612e3c565b811461307f57600080fd5b50565b61308b81612e4e565b811461309657600080fd5b50565b6130a281612e5a565b81146130ad57600080fd5b50565b6130b981612ea6565b81146130c457600080fd5b5056fea26469706673582212208623f77b4928e7e7123a42caca27dc4b1a2645b533e3bde670c48266eacd573764736f6c63430008000033",
  "linkReferences": {},
  "deployedLinkReferences": {}
}